:0E00D300AA83E582900400F0A3EAF0900400F6
:0500E100E0FAA3E0FBC2
:0800E600BA0005BB0002800F07
:0500EE001ABAFF011B1E
:0A00F300900400EAF0A3EBF080E9AE
:0900FD00900400EAF0A3EBF022EC
:0E010600AA83E582900402F0A3EAF0900402BE
:05011400E0FAA3E0FB8E
:08011900BA0005BB0002801DC5
:0E012100900070C002C0031200D3D003D002C1
:05012F001ABAFF011BDC
:0A013400900402EAF0A3EBF080DB78
:09013E00900402EAF0A3EBF022A8
:0E014700AA83E582900404F0A3EAF090040479
:05015500E0FAA3E0FB4D
:08015A00BA0005BB0002801D84
:0E0162009003E8C002C003120106D003D002D1
:050170001ABAFF011B9B
:0A017500900404EAF0A3EBF080DB35
:09017F00900404EAF0A3EBF02265
:020188007A00FB
:03018A00BA0900AF
:0B018D005009D294D295C2950A80F26E
:010198002244
:070199001201AB1201B012CC
:0601A00001881201AB1200
:0501A60001B00201BEE2
:0501AB00D294D2952260
:0501B000C294C295227B
:0901B500D294D295C294C29522A5
:0901BE00C295C294D295D294229C
:0901C700C294D295C295D2942293
:0901D000D294D295C295D294227A
:0801D900E582900406F07A00B3
:0301E100BA080059
:0E01E4005020900406E0FB20E704C294800245
:0201F200D294A5
:0E01F400D295C295900406E025E0FB9004062B
:04020200F00A80DBA3
:0E020600E4A29433FAD294D295C2958A822251
:07021400900407E4F07A00FA
:03021B00BA08001E
:0E021E005022D295309408900407E0FB440172
:01022C00F0E1
:03022D00BA07000D
:0D023000500B900407E025E0FB900407F060
:05023D00C2950A80D902
:07024200900407E0F58222A1
:0E024900AA83E582900409F0A3EAF09004096C
:0E025700E0FAA3E0FB8B047B00EC2CFC4304DC
:0E026500A0C002C0041201ABD004D002C0023F
:0E027300C0041201B0D004D0028C82C002126E
:0E02810001D9AB82D0027C00EB4C70228A8245
:0E028F001201D9AA827B00EA4B701590040878
:0E029D00E0FAF5821201D9AA827B00EA4B70CA
:0402AB00031201BE7B
:0402AF009000002299
:0E02B300AA83E58290040BF0A3EAF090040BFE
:0E02C100E0FAA3E0FB8B04EC2CFC7B0074A0A5
:0E02CF004CFBC002C0031201ABD003D002C032
:0E02DD0002C0031201B0D003D0028B82C00217
:0E02EB00C0031201D9E582D003D00270318A1F
:0E02F90082C0031201D9E582D0037024C00335
:0E0307001201ABD003C0031201B0D0030B8B68
:0E031500821201D9E582700C120214E582906A
:06032300040DF01201BE02
:0C03290090040DE0FA7B008A828B832296
:0E033500AA83E582900410F0A3EAF090041071
:0E034300E0FAA3E0FBC002C003C002C00374D6
:0A035100F9C0E0743CC0E07480C005
:0E035B00E0123421E58124FBF581D003D002AD
:0E0369008A048B0590040EE0FEA3E0FF7800EE
:0203770079000B
:0A037900C3EE9AEF9B500302047DCF
:0E038300C006C007E82CFEE93DFF8E828F8386
:0D039100C002C003C004C005C000C00112BE
:0E039E0002B3AE82AF83D001D000D005D004F0
:0C03AC00D003D0028E08E8540FD007D018
:0E03B800067070C006C007903D0975F080C049
:0E03C60002C003C004C005C006C007C000C0CE
:0E03D40001122732D001D000D007D006D0058C
:0E03E200D004D003D002E82CFEE93DFFC0029B
:0E03F000C003C004C005C006C007C000C001A5
:0A03FE00C006C007740CC0E0743D97
:0E040800C0E07480C0E0123421E58124FBF5D1
:0E04160081D001D000D007D006D005D004D090
:0704240003D002D007D0064F
:0C042B00C006C007AE087F00C002C0037E
:0E043700C004C005C006C007C000C001C0065A
:0A044500C007741CC0E0743DC0E065
:0E044F007480C0E0123421E58124FBF581D0D9
:0E045D0001D000D007D006D005D004D003D0C7
:06046B000208B8000109BF
:050471000ABA00010BB6
:07047600D007D00602037954
:0D047D00903D0975F080122732900000229A
:0A048A001201AB1201B07582A0123E
:0C04940001D97582371201D97A007B0073
:0E04A000C3EA9410EB6480948050178A040C19
:0E04AE008C82C002C0031201D9D003D0020A12
:0604BC00BA00E10B80DE36
:0304C2000201BE76
:0E3CF90073746172745F616464722025780ACE
:023D07000D00AD
:033D09000A0D00A0
:0E3D0C00307825303378202020203A202020E7
:023D1A00200087
:093D1C002530327820202020001F
:0A04C500903D2575F080122732905B
:0904CF003D5275F08012273290B5
:0E04D8003D8075F08012273290000075F00014
:0A04E600122690903D8575F08012FB
:0C04F000273290000075F00012273290B7
:0904FC003D9175F0801227329049
:0E0505003D9675F08012273290000075F000D0
:0E0513001221D8AA828A037C00C002C003C055
:0A052100047499C0E0743DC0E012BC
:0D052B00307EE58124FCF581D0028A822219
:0A053800E582900413F01201AB12EB
:0D05420001B07582401201D9E58270119060
:0E054F000413E0FAF5821201D9E5827003026E
:02055D0001BEDD
:01055F002279
:0A0560001201AB1201B075824112C6
:0C056A0001D9E5827009120214E58290AC
:030576000414F07A
:07057900900414E0F582225A
:0A058000903D8075F0801227329044
:09058A003DB575F0801227329096
:090593003DD375F080122732906F
:09059C003DF275F0801227329047
:0905A5003E1075F080122732901F
:0905AE003E4775F08012273290DF
:0905B7003E6075F08012273290BD
:0805C0003D8075F08002273236
:0905C800903D8075F0801227328D
:0D05D10012058090000075F00012260A90BF
:0E05DE00000075F00012212FE582FAFB24F9CF
:0505EC00500302071F8F
:0705F100EB2B2B9005F873C2
:0705F80002071F02060D02BD
:0605FF0006180206450289
:0606050006640206FD027E
:02060B000712D4
:0B060D00903E8575F08012273280B906
:0E061800903EAB75F08012273290000075F016
:0E0626000012260A90000075F0001227329094
:0D063400000075F000122257AA82AB83125D
:040641000538808C6C
:0C064500120560AA827B00C002C0037492
:08065100D6C0E0743EC0E012C7
:0B065900307EE58124FCF5810205D114
:0806640090041574FFF07A0008
:03066C00BA0800C9
:0A066F005021EA2416FBE43404FCD9
:0E067900900415E0FD74015DFE8B828C83F011
:0B068700EDC313FD900415F00A80DAAB
:020692007A00EC
:03069400BA0800A1
:0506970040030205D143
:0A069C007407C39A2416FBE434042B
:0E06A600FC8B828C83E060278A037C00740743
:0D06B400C39BFBE49CFCC002C003C00474A7
:0806C100FCC0E0743EC0E01231
:0C06C900307EE58124FCF581D002802504
:0E06D5008A037C007407C39BFBE49CFCC002FC
:0A06E300C003C0047420C0E0743F9F
:0D06ED00C0E012307EE58124FCF581D002D2
:0306FA000A8097DC
:0A06FD00903F4575F08012273290FF
:0907070004127401F012178F02B4
:0207100005D111
:0D071200903F6075F08012273290000022A9
:0A071F00903F8A75F0801227329097
:090729003FA875F080122732028E
:0207320005D1EF
:0E3D25000909090909090950726573732027FD
:0E3D3300312720746F20636F6E6669677572AA
:0E3D4100652050494E20617320496E707574E4
:033D4F000A0D005A
:0E3D52000909090909090950726573732027D0
:0E3D6000302720746F20636F6E66696775727E
:0E3D6E00652050494E206173204F75747075AA
:043D7C00740A0D00B8
:053D80000A0D0A0D0010
:0C3D8500090909090909092D2D2D20004C
:053D9100202D2D2D0086
:033D96000A0D0013
:0E3D990009090909090909706F7274436F6EF8
:0E3DA70066696744617461202578200A0D006A
:0E3DB50009090909090909312E20546F20431C
:0E3DC3006F6E66696775726520506F72740AC4
:023DD1000D00E3
:0E3DD30009090909090909322E20546F2057E9
:0E3DE1007269746520696E746F20506F727481
:033DEF000A0D00BA
:0E3DF20009090909090909332E20546F2052CE
:0E3E00006561642066726F6D20506F72740AE7
:023E0E000D00A5
:0E3E100009090909090909342E205265616467
:0E3E1E002074686520436F6E66696775726177
:0E3E2C0074696F6E20737461747573206F6615
:0D3E3A0020506F72742050696E730A0D00E5
:0E3E470009090909090909352E5265736574C8
:0B3E550020436F756E7465720A0D004B
:0E3E600009090909090909362E546F206578F1
:0E3E6E00697420666F726D20492F4F204578D1
:093E7C0070616E6465720A0D00AC
:0E3E85000A0D0A0D09090909090909436F6EA2
:0E3E93006669677572696E6720506F727420E1
:0A3EA10050696E732E2E2E0A0D00DC
:0E3EAB0009090909090909456E746572204468
:0E3EB90061746120746F2062652077726974F5
:0E3EC70074656E20746F20706F7274730A0938
:013ED50000EC
:0E3ED600090909090909095468652044617445
:0E3EE400612066726F6D2074686520506F72E9
:0A3EF200742069732025780A0D0082
:0E3EFC000909090909090950696E2025642089
:0E3F0A00436F6E66696775726564206173208F
:083F1800496E7075740A0D007A
:0E3F20000909090909090950696E2025642064
:0E3F2E00436F6E66696775726564206173206B
:093F3C004F75747075740A0D00D4
:0E3F450009090909090909526573657474694F
:0D3F53006E6720436F756E7465720A0D0075
:0E3F60000909090909090945786974696E673C
:0E3F6E0020666F726D20494F20457870616E9D
:0E3F7C00646572204D6F64652E2E2E0A0D00B6
:0E3F8A0009090909090909494E56414C4944E3
:0E3F9800206F7074696F6E20656E7465720A1A
:023FA6000D000C
:0E3FA8000909090909090952452D454E5445DC
:0E3FB6005220494F20457870616E646572207C
:0E3FC4004D656E75204F7074696F6E0A0D00AA
:0A008F00900422E4F0900423F090A6
:080099000424F0900425F0900E
:0900A1000426E4F0900427F0901D
:0C00AA000428E4F0A3F090042BE4F09094
:0800B600042CF090042DF090E1
:0900BE00042EF090042FE4F090F0
:0300C7000430F012
:0E073400438901758C4B758AFD43A882D28CD7
:010742002294
:0D07430090048E7409F0E4A3F090000312FE
:0C07500017989004857403F0E4A3F09067
:0E075C0004877409F0E4A3F0903FD275F0809A
:0A076A001215CD12176575820212F8
:05077400151D021765D0
:0D077900C296D297908000121502AA8290BD
:0E078600041FE0FBA3E0FCBB0126BC00239097
:090794000423E4F0900424F09029
:08079D000425F0900426F09001
:0D07A5000427E4F090041FF0A3F0C002123E
:0407B2000743D00227
:0E07B60090051BE0FBA3E0FC4B70030208D390
:0E07C400C002900427E0FDC2D575F00AED30AA
:0607D200E704B2D5F404B7
:0E07D800A430D50AF42401C5F0F43400C5F0B5
:0E07E600FDAEF0900426E0FF3395E0F8EF2D15
:0E07F400FDE83EFE9004CC743CF0E4A3F08DD2
:0E080200828E83C002C003C004123186AD8214
:0E081000AE83D004D003D002900425E0FFC2D6
:0C081E00D575F00AEF30E704B2D5F40401
:0E082A00A430D50AF42401C5F0F43400C5F062
:0E083800FFA8F0900424E0F93395E0FAE92FD0
:0E084600FFEA38F8EF2DFDE83EFEEBB50508A1
:08085400ECB5060474018001FB
:01085C00E4B7
:07085D00D00270030208D372
:0E086400900511E0FBA3E0FCBB0164BC006149
:0D087200908000C002121502AB82D00290EF
:0E087F000000C002C00312176DD003D002901B
:0E088D000485E4F0A3F0900487E4F0A3F0905B
:0E089B003FDA75F080C002C0031215CDD00305
:0E08A900D002900421E0FCF582C002C00312D0
:0E08B700155BD003D0027C008B828C83C002C4
:0E08C50012176DD0029005117402F0E4A3F03A
:0E08D300900511E0FBA3E0FC4B704F908000FD
:0E08E100C002121502AB82D002900001C002CC
:0E08EF00C00312176DD003D002900485E4F010
:0E08FD00A3F0900487E4F0A3F0903FE675F0BE
:0E090B0080C002C0031215CDD003D0027C00C4
:0E0919008B828C83C00212176DD002900511E4
:060927007402F0E4A3F0ED
:0D092D00900423E0FB90042374012BF09054
:09093A000423E0FBBB0A02800368
:03094300020A4D58
:0D094600900424E0FB90042474012BF09039
:0E0953000423E4F0900424E0FBBB0A028003BE
:03096100020A285F
:0D096400900425E0FB90042574012BF09019
:0E0971000424E4F0900425E0FBBB06028003A2
:03097F00020A0366
:0D098200900426E0FB90042674012BF090F9
:0D098F000425E4F0900426E0FBBB0A439031
:0C099C000427E0FB90042774012BF0906E
:0D09A8000426E4F0900427E0FBBB06059058
:0409B5000427E4F03F
:0E09B90090048E7409F0E4A3F0900003C002D5
:0E09C700121798D002900427E0FB74302BFB2F
:0909D500F582C00212155BD0028C
:0E09DE0090048E740AF0E4A3F0900003C002AF
:0E09EC00121798D002900426E0FB74302BFB0B
:0909FA00F582C00212155BD00267
:0E0A030090048E740CF0E4A3F0900003C00287
:0E0A1100121798D002900425E0FB74302BFBE6
:090A1F00F582C00212155BD00241
:0E0A280090048E740DF0E4A3F0900003C00261
:0E0A3600121798D002900424E0FB74302BFBC2
:090A4400F582C00212155BD0021C
:0E0A4D0090048E740FF0E4A3F0900003C0023A
:0E0A5B00121798D002900423E0FB74302BFB9E
:0E0A6900F582C00212155BD0027B008A828BE0
:040A77008302176D72
:070A7B0075A61E75A6E1221D
:0E0A8200C0E0C0F0C082C083C002C003C00448
:0E0A9000C005C006C007C000C001C0D075D0B0
:0E0A9E0000758C4B758AFDD28C90041EE0FA18
:080AAC00700675A61E75A6E197
:0E0AB400900428E0FAA3E0FB9004CE7402F058
:0E0AC200E4A3F08A828B831231A6AA82AB8352
:0E0AD000BA0114BB001190049AE0FAA3E0FBF7
:090ADE00BA0106BB0003120779FE
:0E0AE700900428E0FAA3E0FB90042874012A92
:0E0AF500F0E43BA3F0D0D0D001D000D007D069
:0E0B030006D005D004D003D002D083D082D01B
:040B1100F0D0E0320E
:0C0B1500E58290042AF0900518E4F090AE
:080B21000517F0900516F09095
:090B29000515F0900514E4F090AC
:090B32000513F090042AE0FA908A
:080B3B000421F0E4BA310104C9
:070B4300F50AE4BA320104D7
:070B4A00F509E4BA330104D0
:010B5100FDA6
:0E0B5200903FF475F080C002C005122732D02B
:0E0B600005D002903FF775F080C002C005126C
:0D0B6E002732D005D0028A82C002C00512D5
:0E0B7B00211DD005D002903FF475F080C0021D
:0E0B8900C005122732D005D00290400C75F046
:0E0B970080C002C005122732D005D0028A822B
:0E0BA500C002C00512211DD005D002903FF401
:0E0BB30075F080C002C005122732D005D002B6
:0E0BC10090402375F080C002C005122732D08C
:0E0BCF0005D0028A82C002C00512211DD00589
:0D0BDD00D002903FF475F080C002C00512F8
:0E0BEA002732D005D00290403B75F080C0024B
:0E0BF800C005122732D005D002C002C005127F
:0E0C06002113AE82D005D0028E82C002C0053E
:0E0C1400C00612211DD006D005D002BE31024E
:020C2200801B35
:060C2400BE3203020E5D6A
:060C2A00BE3303020ECFF1
:060C3000BE5803020F464E
:060C3600BE7803020F4628
:030C3C00020F663E
:0E0C3F0090405975F080C002C005122732D0D7
:0E0C4D0005D00290000075F000C002C0051234
:0E0C5B00260AD005D00290000075F000C002FD
:0E0C6900C005122732D005D002903FF475F07E
:0E0C770080C002C005122732D005D002BA316B
:0E0C85001C90000075F000C002C00512212F67
:0E0C9300AE82AF83D005D00290042BEEF0802D
:010CA1003C16
:0E0CA200BA321C90000075F000C002C00512AE
:0E0CB000212FAE82AF83D005D00290042CEE2F
:030CBE00F0801DA6
:0E0CC100BA331A90000075F000C002C0051290
:0E0CCF00212FAE82AF83D005D00290042DEE0F
:010CDD00F026
:0E0CDE0090407775F080C002C005122732D01A
:0E0CEC0005D00290000075F000C002C0051295
:0E0CFA00260AD005D00290000075F000C0025E
:0E0D0800C005122732D005D002903FF475F0DE
:0D0D160080C002C005122732D005D002E5D2
:0C0D23000A604F90000075F000C002C094
:0D0D2F000512212FAE82AF83D005D00290B7
:0E0D3C00042EEEF090042BE0FFC2D575F03CC3
:080D4A00EF30E704B2D5F40418
:0E0D5200A430D50AF42401C5F0F43400C5F035
:0E0D6000FFA8F0EE3395E0F990051BEE2FF0A2
:070D6E00E938A3F0020E16A4
:0C0D7500E509604E90000075F000C0021F
:0E0D8100C00512212FAE82AF83D005D00290A4
:0E0D8F00042FEEF090042CE0FFC2D575F03C6E
:080D9D00EF30E704B2D5F404C5
:0E0DA500A430D50AF42401C5F0F43400C5F0E2
:0E0DB300FFA8F0EE3395E0F990051BEE2FF04F
:060DC100E938A3F0804FA9
:0E0DC700ED604C90000075F000C002C00512F7
:0E0DD500212FAE82AF83D005D002900430EE05
:0E0DE300F090042DE0FFC2D575F03CEF30E734
:050DF10004B2D5F4047A
:0E0DF600A430D50AF42401C5F0F43400C5F091
:0E0E0400FFA8F0EE3395E0F990051BEE2FF0FD
:040E1200E938A3F028
:0E0E160090409575F080C002C005122732D0C2
:0E0E240005D00290000075F000C002C005125B
:0E0E3200260AD005D00290000075F000C00224
:0E0E4000C005122732D005D002903FF475F0A5
:0D0E4E0080C002C005122732D005D002027C
:020E5B000F770F
:0E0E5D00903FF475F080C002C005122732D01D
:0E0E6B0005D0029040B375F080C002C00512A1
:0D0E79002732D005D0028A82C002C00512C7
:0E0E8600211DD005D002903FF475F080C0020F
:0E0E9400C005122732D005D00290051174015E
:0E0EA200F0E4A3F0BA31099005137401F002D8
:020EB0000F77BA
:0C0EB200BA32099005147401F0020F77A9
:050EBE00BA33028003BD
:030EC300020F77A4
:090EC6009005157401F0020F778C
:0E0ECF00903FF475F080C002C005122732D0AB
:0E0EDD0005D0029040CA75F080C002C0051218
:0D0EEB002732D005D0028A82C002C0051255
:0E0EF800211DD005D002903FF475F080C0029D
:0E0F0600C005122732D005D002900511E4F08C
:0E0F1400A3F0BA310D9005167401F09005138C
:040F2200E4F0805126
:0E0F2600BA320D9005177401F0900514E4F036
:020F34008041FA
:0E0F3600BA333E9005187401F0900515E4F0F2
:020F44008031FA
:0A0F4600903FF475F08012273290FE
:090F500040E275F0801227329096
:0D0F5900042AE0FEF58212211D9000002206
:0E0F660090410575F080C002C005122732D000
:030F740005D002A3
:0D0F7700C00590412375F080C002C0051236
:0E0F84002732D005D00290414C75F080C0029B
:0E0F9200C005122732D005D002900516E0FEF1
:0E0FA0007F00900513E0F8790090042EE0FD2C
:080FAE008D0B3395E0F50C906A
:0E0FB600042BE0FB3395E0FCC002C005C00632
:0A0FC400C007C000C001C00BC00C44
:0A0FCE00C003C0047451C0E0744178
:0E0FD800C0E012307EE58124F6F581D005D010
:0E0FE60002900517E0FB7C00900514E0FD7EF4
:0C0FF4000090042FE0FF8F0B3395E0F518
:0C1000000C90042CE0F93395E0FFC002D6
:0C100C00C005C003C004C005C006C00B36
:0A101800C00CC001C007747AC0E0EC
:0C1022007441C0E012307EE58124F6F538
:0D102E0081D005D002900518E0FB7C0090F9
:0C103B000515E0FD7E00900430E0FF8F02
:071047000B3395E0F50C905E
:0E104E00042DE0F93395E0FFC002C005C00399
:0A105C00C004C005C006C00BC00CA4
:0A106600C001C007747AC0E07441B5
:0E107000C0E012307EE58124F6F581D005D077
:06107E0002D005020B5236
:083FD20030303A30302E30008F
:0C3FDA00202020202020416C61726D002E
:0E3FE60020202020202020202020202020002D
:033FF4000A0D00B3
:0E3FF70009090909090909312E456469742078
:07400500414C41524D200027
:0E400C0009090909090909322E456E61626C25
:09401A006520414C41524D20008B
:0E40230009090909090909332E44697361620C
:0A4031006C6520414C41524D200007
:0E403B0009090909090909782E4578697420D8
:0E404900746F20436C6F636B204D656E750ABB
:024057000D005A
:0E40590009090909090909456E746572207488
:0E406700686520616C61726D204D4D3A200A33
:024075000D003C
:0E40770009090909090909456E74657220746A
:0E408500686520616C61726D2053532E200A15
:024093000D001E
:0E40950009090909090909456E74657220744C
:0E40A300686520616C61726D206D732E200ABD
:0240B1000D0000
:0E40B30009090909090909456E61626C696E07
:0940C1006720616C61726D200042
:0E40CA000909090909090944697361626C69F1
:0A40D8006E6720616C61726D2000BC
:0E40E20009090909090909456E746572696EBC
:0E40F0006720696E746F20436C6F636B204D08
:0740FE006F64650A0D20004C
:0E41050009090909090909456E7465722061EE
:0E4113002056616C6964204F7074696F6E0AEB
:024121000D008F
:0E41230009090909090909202A2A2A2A5354E0
:0E41310041545553204F4620414C41524D20E1
:0D413F00434C4F434B532A2A2A2A0A0D00F5
:05414C000A0D0A0D0040
:0E41510009090909090909414C41524D203163
:0E415F00204D4D3A25642053533A25642045E7
:0D416D004E3A25642044533A25640A0D00A3
:0E417A0009090909090909414C41524D203239
:0E418800204D4D3A25642053533A25642045BE
:0D4196004E3A25642044533A25640A0D007A
:0254E8000000C2
:0254EA000200BE
:0154EC0000BF
:0154ED0000BE
:0154EE0000BD
:0154EF0000BC
:0154F00000BB
:0154F10000BA
:0254F2000000B8
:0254F400FF00B7
:0E108400E582900431F0D296C297900431E0DC
:0B109200FA90047DF09080000214E44E
:0A109D009041A375F08012273290F5
:0A10A70041A875F0801227327A008C
:0310B100BA08007A
:0510B40040030211449D
:0C10B9008A037C00C002C003C00474E481
:0C10C500C0E07441C0E012307EE58124E0
:0E10D100FCF581D00290000075F000C0021204
:0A10DF00260AD002EA2432FBE434B2
:0C10E90004FC90000075F000C002C00381
:0E10F500C004122257AD82AE83D004D003D0C7
:0E110300028B828C83EDF090422875F080C044
:0E11110002C003C004122732D004D003D00263
:0E111F008B828C83E0FB7C00C002C003C00406
:09112D00742BC0E07442C0E01212
:0E113600307EE58124FCF581D0020A0210B162
:0A11440090425575F080122732909A
:0C114E00428475F080122732908000125D
:0E115A001502AA82758240C00212151DD00235
:0E116800900432E0FBF582C002121084D00227
:0E117600900433E0FBF582C002121084D00218
:0E118400900434E0FBF582C002121084D00209
:0E119200900435E0FBF582C002121084D002FA
:0E11A000900436E0FBF582C002121084D002EB
:0E11AE00900437E0FBF582C002121084D002DC
:0E11BC00900438E0FBF582C002121084D002CD
:0E11CA00900439E0FBF582C002121084D002BE
:0E11D8007B008A828B8312176D9042AA75F0FD
:0E11E6008012273290000075F00012260A9049
:0E11F400000075F000122257AA82AB837480AF
:0D1202002AFA90043AE4F08A821212179042
:08120F0042F575F08002273260
:0E121700E58290043BF090043BE0FAF5821271
:06122500151D1217659073
:0A122B00043AE0FAF58212154202BF
:0212350017653B
:05123700D310AF01C35C
:0C123C00C0D090043CE4F090043DF09021
:0C124800043E740AF090043F741FF09004
:0C1254000440741FF0900441741FF090DF
:0C1260000442740EF09004437404F090FB
:0B126C000444E4F09004457401F0908D
:0C12770004467403F09004477407F090E4
:0C1283000448740FF0900449741FF090B0
:0C128F00044A741FF090044B741FF09090
:0C129B00044C741FF090044D741FF09080
:0C12A700044E741FF090044F741FF09070
:0C12B3000450741FF0900451740FF09070
:0C12BF0004527407F09004537403F09084
:0C12CB0004547401F09004557410F0906D
:0C12D70004567418F0900457741CF0903A
:0C12E3000458741EF0900459741FF09021
:0C12EF00045A741FF090045B741FF09010
:0B12FB00045C741FF090045DE4F090B0
:08130600045EF090045FF0901A
:0A130E000460F0900461741FF09079
:0C1318000462741FF0900463741FF090D6
:0B1324000464741FF0900465E4F09076
:08132F000466F0900467F090E1
:0A1337000468F09004697403F0905C
:0B134100046A7403F090046BE4F09069
:08134C00046CF090046DF090B8
:09135400046EF090046FE4F090C7
:0A135D000470F09004717418F09011
:0B13670004727418F0900473E4F0901E
:0A1372000474F0900475741FF090ED
:0C137C000476741FF0900477741FF0904A
:0C1388000478741FF0900479741EF0903B
:0C139400047A741CF090047B7418F09034
:0E13A000047C7410F0908000121502AA827B6B
:0113AE00003E
:0313AF00BB080078
:0E13B2005051EBC40354F8FC2440FDF582C0FA
:0E13C00002C003C00412151DD004D003D002D9
:0513CE0090043CE0FD6D
:0313D300BD080052
:0A13D6005025EC2D243DF582E4348F
:0C13E00004F583E0FEF582C002C003C0EB
:0E13EC0004C005121542D005D004D003D00273
:0313FA000D80D68D
:0813FD0090043CE4F00B80AA0F
:0E1405007B008A828B8312176DD0D092AF22AB
:0A14130090800012150212123790AB
:0E141D00043A7401F07582801212177582FF76
:0D142B0012155B90043A7403F07582821272
:0D143800121790048EE4F0A3F09000011252
:0914450017987582FF12155B90E7
:0C144E00043A7405F07582C11212179068
:0C145A00043A7404F07582C2121217905C
:0C146600043A7406F07582C3121217904D
:0C147200043A7404F07582C41212179042
:0C147E00043A7405F07582C51212179034
:0D148A00048EE4F0A3F09000021217989079
:0E149700043A7402F07582901212177582FFEB
:0D14A50012155B90043A7407F075829212E4
:0C14B200121775822012155B7582FF1264
:0C14BE00155B90043A7402F07582D212A3
:0914CA0012177582FF12155B90E8
:0E14D300043A7407F07582D41212179080004C
:0314E10002176D82
:0541A3000A0D0A0D00E9
:0E41A800090909090909094E6F7720796F7519
:0E41B6002061726520676F696E6720746F204C
:0E41C400637265617465206120352A382063BE
:0E41D2007573746F6D2063686172616374654C
:0441E000720A0D0052
:0E41E40009090909090909456E7465722074FC
:0E41F2006865206368617261637465722063A2
:0E4200006F6465202863636F646529206F6614
:0E420E0020524F57202725642720696E206814
:0C421C00657820666F726D61740A0D00F9
:034228000A0D007C
:0E422B00546865206368617261637465722077
:0E423900796F75206861766520656E74657218
:0E4247006564206973202A25782A200A0D005C
:0E4255000909090909090955206861766520E3
:0E426300656E74657265642063636F64652028
:0E4271007375737365737366756C6C792021B9
:05427F0021210A0D00E1
:0E428400090909090909094372656174696E27
:0E4292006720437573746F6D206368617261FD
:0A42A000637465722E2E2E0A0D00C5
:0E42AA0009090909090909456E746572207435
:0E42B80068652061646472657373206F6E2008
:0E42C6004C434420746F20646973706C6179FE
:0E42D40020796F7572206372656174656420D5
:0E42E200637573746F6D20636861726163743D
:0542F00065720A0D00DB
:0E42F50009090909090909446973706C6179A6
:0E430300696E67207468652063726561746579
:0E4311006420637573746F6D20636861726160
:0E431F0063746572206F6E204C43442E2E2E68
:03432D000A0D0076
:0E14E400AA83E58290047EF0A3EAF090047ED5
:0E14F200E0FAA3E0FB90047DE0FC8A828B838D
:02150000F022D7
:0E150200AA83E582900480F0A3EAF0900480B2
:0D151000E0FAA3E0FB8A828B83E0F58222E3
:0E151D00E582900482F0900001120106C29651
:0E152B00C297900482E0FA90047DF090800058
:091539001214E490000102010605
:0E154200E582900483F0D296C297900483E075
:0B155000FA90047DF09080000214E48B
:0E155B00E582900484F0121765D296C2979034
:0C1569000484E0FA90047DF090800012F1
:0515750014E4021765FB
:0E157A00900064120106C296C297758230126C
:0E158800151D900032120106C296C2977582A0
:0B1596003012151D9000961200D312B9
:0915A100176575823812151D1240
:0915AA00176575820812151D1267
:0915B300176575820F12151D1257
:0915BC00176575820612151D1257
:0815C500176575820102151D76
:0E15CD00AAF0AB83E582900489F0A3EBF0A3B3
:0E15DB00EAF0900485E0FAA3E0FB900487E0BC
:0815E900FCA3E0FD7E007F0081
:0915F100900489E0F50DA3E0F57A
:0615FA000EA3E0F50F85D1
:061600000D82850E8385BA
:081606000FF0123CC07001223C
:0E160E00EC2EF8ED3FF99004CE7410F0E4A33A
:0E161C00F088828983C002C003C004C005C0EC
:0E162A0006C0071231A6E5828583F0D007D0F6
:0E16380006D005D004D003D00245F0600302B6
:02164600171576
:0E164800C3E49E74808FF063F08095F0400341
:0316560002171563
:0D165900C002C003C004C005C006C00712D7
:0E1666001765D007D006D005D004D003D002FF
:0E167400758202C002C003C004C005C006C0DB
:0E1682000712151DD007D006D005D004D003E6
:0E169000D002C002C003C004C005C006C007DF
:0E169E00121765D007D006D005D004D003D0B7
:0616AC00020ABA00010B66
:0E16B20090048EE4F0A3F08A828B83C002C005
:0E16C00003C004C005C006C007121798D0076B
:0C16CE00D006D005D004D003D002850D5A
:0816DA0082850E83850FF012DA
:0916E2003CC0F890048974012554
:0916EB000DF0E4350EA3F0A3E5B7
:0C16F4000FF08882C002C003C004C005D3
:0E170000C006C00712155BD007D006D005D07A
:07170E0004D003D002804863
:0E171500C004C005900489E0F8A3E0F9A3E049
:0E172300FC888289838CF0123CC0FD90048902
:0E173100740128F0E439A3F0A3ECF08D82C01F
:0E173F0002C003C004C005C006C00712155B3F
:0E174D00D007D006D005D004D003D002D005BE
:02175B00D004B8
:05175D000EBE00010FAB
:031762000215F17C
:04176500C296D297BF
:041769003097FD2296
:0E176D00AA83E58290048CF0A3EAF0121765BF
:0E177B0090048CE0FAA3E0FB74802AFAF58259
:0617890012151D02176598
:09178F0012176575820102151D97
:0E179800AA83E582900490F0A3EAF0900490FA
:0D17A600E0FAA3E0FBBA0005BB00028018CA
:0817B300BA0105BB0002801F12
:0817BB00BA0205BB0002802DFB
:0817C300BA0356BB0053803B42
:0D17CB0090048EE0FAA3E0FB8A828B83027B
:0217D800176D8B
:0E17DA0090048EE0FAA3E0FB74402AFAE43B90
:0817E800FB8A828B8302176D5E
:0E17F00090048EE0FAA3E0FB74102AFAE43BAA
:0817FE00FB8A828B8302176D48
:0E18060090048EE0FAA3E0FB74502AFAE43B53
:08181400FB8A828B8302176D31
:01181C0022A9
:0E181D00AA83E582900492F0A3EAF090049270
:0E182B00E0FAA3E0FBC374039A74808BF063B1
:0D183900F08095F0501690433075F080124D
:09184600273290434875F080122E
:06184F0027329000002288
:0418550090000122DC
:0E185900AA83E582900494F0A3EAF090049430
:0E186700E0FAA3E0FBC3740F9A74808BF06369
:0D187500F08095F0501690436075F08012E1
:09188200273290437B75F08012BF
:06188B002732900000224C
:0418910090000122A0
:05189500D310AF01C3F8
:0E189A00C0D0E582900498F0900498E0FAE443
:0418A800BA4001043D
:0918AC00FB8A10900497E0FD9006
:0918B5000496E0F5127F007800B2
:0918BE00C3E895124003021A7BF5
:0E18C700EB601FE82AF9F582C002C003C005DD
:0E18D500C007C00012151DD000D007D005D0EE
:0618E30003D00202198788
:0C18E900E8C4540FF924FC5003021987D6
:0718F500E929299018FC739A
:0718FC00021908021926027F
:051903001947021968FC
:0E190800E82AF9F582C002C003C005C007C07E
:0E1916000012151DD000D007D005D003D0025E
:021924008061E0
:0E192600740F5824C0F9F582C002C003C0053A
:0E193400C007C00012151DD000D007D005D08E
:0519420003D00280400B
:0E194700740F582490F9F582C002C003C00549
:0E195500C007C00012151DD000D007D005D06D
:0519630003D002801F0B
:0E196800740F5824D0F9F582C002C003C005E8
:0E197600C007C00012151DD000D007D005D04C
:0319840003D0028B
:0E198700D296D297908000C002C003C005C067
:0C19950007C000121502858211D000D09E
:0E19A10007D005D003D0028DF0EF84E5F06092
:0419AF0003021A45D0
:0E19B30090439675F080C002C003C005C007C7
:0E19C100C000122732D000D007D005D003D0CE
:0C19CF0002EB6041C0058F057C00A910F0
:0E19DB007E00E92DFDEE3CFCC002C003C005FD
:0C19E900C007C000C005C0047499C0E035
:0C19F5007443C0E07480C0E0123421E5AF
:0E1A01008124FBF581D000D007D005D003D0A2
:051A0F0002D00580314A
:0E1A14008F047E00C002C003C005C007C000E2
:0A1A2200C004C0067499C0E07443CC
:0E1A2C00C0E07480C0E0123421E58124FBF597
:0B1A3A0081D000D007D005D003D002FF
:0C1A4500A9117C00C002C003C005C0074E
:0B1A5100C000C001C00474A9C0E07414
:0C1A5C0043C0E07480C0E0123421E5813A
:0E1A680024FBF581D000D007D005D003D002BA
:051A76000F080218BE7C
:0E1A7B0090439675F080122732758201D0D00C
:031A890092AF22F7
:0E433000496E76616C696420795F526F772068
:0A433E00456E74657265640A0D0097
:0E43480052652D656E74657220795F526F7735
:0A435600206C656E6774680A0D00A4
:0E436000496E76616C696420785F636F6C75DE
:0D436E006D6E20456E74657265640A0D0069
:0E437B0052652D656E74657220785F636F6CFD
:0D438900756D6E206C656E6774680A0D001E
:034396000A0D000D
:0E439900307825303378202020203A20202054
:0243A7002000F4
:0843A9002530327820202000AD
:06000000020036021AB1F5
:03000B00020A8264
:0100130032BA
:01001B0032B2
:0100230032AA
:01002B0032A2
:03003300021B4B62
:0600CA0090049C7430F06C
:0300D000021A8C85
:051A8C00121B9680FE14
:0E1A9100438E0CC29FD29ED29C438920759832
:0E1A9F0050758DFD758BFDD28ED29975990014
:041AAD009000002283
:0E1AB100C0E0C0F0C082C083C002C003C00409
:0E1ABF00C005C006C007C000C001C0D075D071
:0E1ACD000075820212151D90049CE0FABA3AD0
:031ADB0002800E78
:0E1ADE00900412E0FAA3E0FBBA0109BB000677
:061AEC0090049C7430F030
:0D1AF200900412E4F0A3F090049CE0FA9040
:0C1AFF00049C74012AF08A8212155B908E
:0D1B0B00049CE0FA24D0900499F08A821224
:061B1800211D1205609082
:0E1B1E000499E0FA90049DE0FB42028A8212D4
:0E1B2C000538C289D0D0D001D000D007D00635
:0E1B3A00D005D004D003D002D083D082D0F0EA
:031B4800D0E032B8
:0E1B4B00C0E0C082C083C002C003C0D075D00D
:061B590000D310AF01C330
:0E1B5F00C0D090041EE0FAA3E0FB4A700675A9
:051B6D00A61E75A6E1B3
:0E1B7200D0D092AFD0D0D003D002D083D0829A
:031B8000D0E03280
:0E1B8300D2AFD2AE75ECFF75FC0075DC498563
:051B9100D9D9D2DE22CB
:0E1B960090049A7401F0E4A3F090041FE4F0B0
:0E1BA400A3F0D28843A88112157A120734905C
:0A1BB2000412E4F0A3F012074390C0
:0E1BBC00041EE4F0A3F075A70775A61E75A61B
:011BCA00E139
:0A1BCB0075820212151D1217651233
:0E1BD5002ACC90000075F00012260A90000045
:0D1BE30075F00012273290000075F000121E
:0E1BF000212FAA828A037C00C002C003C00419
:091BFE0074B1C0E07443C0E012B0
:0E1C0700307EE58124FCF581D0029043E1752A
:0E1C1500F080C002122732D002EAFB24F05009
:041C2300030220FE9A
:071C2700EB2B2B901C2E7328
:071C2E000220FE021C5E0211
:061C35001D8F021DEE02EE
:061C3B001E3C021E4202E5
:061C41001E9A021EF502CE
:061C47001F50021F5602AF
:061C4D001F6F021F7E0262
:061C53001F8D021FA2021A
:051C590020DB0220EF7A
:0A1C5E007582011227A2AA82AB834F
:0E1C68009043E475F080C002C003122732D012
:0E1C760003D00290000075F000C002C00312FF
:0E1C8400260AD003D00290000075F000C002C6
:0E1C9200C003122257AC82AD83D003D0028C67
:0E1CA000068D07C374FF9EE49F5003021D488B
:0E1CAE008C068D07C002C003C004C005C0062E
:0B1CBC00C007C004C0057428C0E0741D
:0C1CC70044C0E07480C0E0123421E581CC
:0E1CD30024FBF581D007D006D005D004D00345
:0E1CE100D0029043E175F080C002C003C00441
:0E1CEF00C005C006C007122732D007D006D0AD
:0E1CFD0005D004D003D0028B007900C002C0D5
:0E1D0B0003C006C007C002C003C000C001C074
:0A1D190004C0057469C0E07444C002
:0E1D2300E07480C0E0123421E58124F7F581E0
:0E1D3100D007D006D003D002900408EEF08A4E
:091D3F00828B83120249021BCBC6
:0E1D48009044B275F080C002C003122732D062
:0E1D560003D00290000075F000C002C003121E
:0E1D64002732D003D0029044D875F080C00220
:0E1D7200C003122732D003D0029044F275F065
:0D1D800080C002C003122732D003D002023F
:021D8D001C68D0
:0E1D8F007582011227A2AA82AB839043E175F0
:0E1D9D00F080C002C003122732D003D00290A3
:0E1DAB00450F75F080C002C003122732D0032E
:0E1DB900D0028A828B83C002C0031202B3AC38
:0E1DC70082AD83D003D002C004C005C002C0AC
:0A1DD500037435C0E07445C0E074EB
:0D1DDF0080C0E0123421E58124F9F5810275
:021DEC001BCB0F
:0E1DEE007582011227A2AA82AB839043E17591
:0E1DFC00F080C002C003122732D003D0029044
:0E1E0A00450F75F080C002C003122732D003CE
:0E1E1800D0028A828B83C002C0031202B3ACD8
:0E1E260082AD83D003D0029004C8ECF08A8213
:081E34008B8312287A021BCBFC
:061E3C0012178F021BCB00
:0E1E42007582021227A2AA82AB839043E1753B
:0E1E5000F080C002C003122732D003D002750A
:0E1E5E008203C002C0031227A2AC82AD83D063
:0E1E6C0003D0029043E175F080C002C003C0B5
:0E1E7A0004C005122732D005D004D003D002D8
:0D1E880090040EECF0A3EDF08A828B831223
:051E95000335021BCB28
:0B1E9A0090453D75F0801227327A0160
:0E1EA500EA24F740248A037C00C002C003C078
:0A1EB30004744CC0E07445C0E074F4
:0E1EBD0080C0E0123421E58124FBF581D002C3
:031ECB000A80D7B3
:0A1ECE0090455475F0801227329001
:0E1ED80004967440F09004977408F0758240F0
:0A1EE60012189575820212151D12E4
:051EF0001765021BCB89
:0B1EF50090453D75F0801227327A0105
:0E1F0000EA24EF40248A037C00C002C003C024
:0A1F0E0004744CC0E07445C0E07498
:0E1F180080C0E0123421E58124FBF581D00267
:031F26000A80D757
:0A1F290090458C75F080122732906D
:0E1F330004967440F09004977410F07582804C
:0A1F410012189575820212151D1288
:051F4B001765021BCB2D
:061F500012109D021BCBE4
:031F5600122BFE4D
:0E1F5900122C10AA82AB83BA01F6BB00F31261
:061F67002D17122D2002CF
:021F6D001BCB8C
:0A1F6F009045ED75F0801227321244
:051F79000199021BCBE1
:0A1F7E009045FC75F0801227321226
:051F880005C8021BCB9F
:0A1F8D0090462775F080122732906D
:0B1F970004127401F0E4A3F0021BCB65
:0A1FA20090464275F080122732903D
:051FAC00049E7401F029
:0A1FB10090049EE0FA7003021BCBBF
:0A1FBB0090466875F08012273290FE
:091FC500468075F080122732906D
:091FCE00469775F080122732904D
:091FD70046B175F080122732902A
:091FE00046CA75F0801227329008
:0E1FE90046E875F08012273290000075F00077
:0D1FF70012260A90000075F00012273290AB
:0E200400000075F00012212FE582FAFB24FA8D
:052012005003021FB1A4
:07201700EB2B2B90201E7340
:07201E000220D8022030026D
:06202500204502205802D4
:05202B00206D0220CA37
:0A20300090470F75F08012273290E0
:0B203A00041F7401F0E4A3F0021FB1CA
:0A20450090472B75F08012273290AF
:09204F00049AE4F0A3F0021FB1B1
:0A20580090474675F0801227329081
:0B206200049A7401F0E4A3F0021FB127
:0A206D0090476375F080122732904F
:09207700478075F08012273290B9
:09208000478575F0801227321229
:0E2089002113AA82C00212211DD002BA030246
:02209700801CAB
:05209900BA31028005D0
:05209E00BA321D8009AB
:0920A300758231120B15021FB108
:0920AC00758232120B15021FB1FE
:0920B500758233120B15021FB1F4
:0A20BE009047B975F0801227320236
:0220C8001FB146
:0A20CA009047D675F080122732907F
:0420D400049EE4F092
:0320D800021FB133
:0920DB009047F075F080122732E5
:0B20E40090041E7401F0E4A3F080F5EE
:0A20EF0090481175F080122732129C
:0520F9001413021BCBD3
:0A20FE0090482875F08012273290F8
:09210800484875F08012273202EC
:022111001BCBE6
:0E43B10009090909090909546865204D656E5E
:0E43BF0075206F7074696F6E20796F752068BD
:0E43CD0061766520656E7465726564206973A3
:0643DB002025640A0D001C
:0343E1000A0D00C2
:0E43E400090909090909094E6F772C20456E59
:0E43F2007465722074686520616E20382D623B
:0E4400006974204461746120796F75207761C2
:0E440E006E7420746F20656E74657220696E86
:0C441C00746F20454550524F4D0A0D00B2
:0E4428000909090909090954686520446174ED
:0E4436006120796F75206861766520656E746F
:0E44440065726564206973203A202A25782A63
:0E44520020616E6420697320612076616C69C0
:094460006420446174610A0D003E
:0E44690009090909090909436F7079696E672D
:0E447700207468652044617461202A25782A2B
:0E44850020696E746F20426C6F636B202725D8
:0E44930064272061646472657373202A2578A3
:0E44A1002A206F6620454550524F4D2E2E2E7C
:0344AF000A0D00F3
:0E44B200090909090909095468652044617463
:0E44C0006120796F75206861766520656E74E5
:0A44CE0065726564206973203A00EE
:0E44D800616E64206973206E6F74206120563F
:0C44E600414C494420444154410A0D005F
:0E44F2000909090909090952452D454E54458D
:0E45000052204461746120616761696E0A0D8A
:01450E0000AC
:0E450F0009090909090909526574726976697A
:0E451D006E6720646174612066726F6D4545A3
:0A452B0050524F4D2E2E2E0A0D00A7
:084535002578203A20257800CA
:0E453D002020202020202020202020202020B0
:01454B00006F
:08454C0025303264202020001C
:0E4554000A0D202020202020202020202020C2
:0E45620020202D2D2D2D2D2D2D2D2D2D2D2DEF
:0E4570002D2D2D2D2D2D2D2D2D2D2D2D2D2DC7
:0E457E002D2D2D2D2D2D2D2D2D2D2D0A0D0029
:0E458C000A0D2020202020202020202020208A
:0E459A0020202D2D2D2D2D2D2D2D2D2D2D2DB7
:0E45A8002D2D2D2D2D2D2D2D2D2D2D2D2D2D8F
:0E45B6002D2D2D2D2D2D2D2D2D2D2D2D2D2D81
:0E45C4002D2D2D2D2D2D2D2D2D2D2D2D2D2D73
:0E45D2002D2D2D2D2D2D2D2D2D2D2D2D2D2D65
:0D45E0002D2D2D2D2D2D2D2D2D2D0A0D00F5
:0E45ED00454550524F4D2052455345540A0D3E
:0145FB0000BF
:0E45FC0009090909090909456E746572696E9D
:0E460A00672074686520492F4F204578706145
:0E4618006E646572204D656E752E2E2E0A0D95
:014626000093
:0E462700090909090909095265736574746966
:0D4635006E6720436F756E7465720A0D008C
:0E46420009090909090909456E746572696E56
:0E465000672054686520436C6F636B204D65D6
:0A465E006E752E2E2E0A0D0A0D00B7
:0E46680009090909090909312E2052657365F7
:0A4676007420436C6F636B0A0D00A3
:0E46800009090909090909322E2053746F70C7
:09468E0020436C6F636B0A0D0000
:0E46970009090909090909332E2052657374B7
:0C46A50061727420436C6F636B0A0D009F
:0E46B10009090909090909342E20456E7465AE
:0B46BF007220416C61726D730A0D00E7
:0E46CA0009090909090909352E204578697486
:0E46D80020746F204D61696E204D656E750A6D
:0246E6000D00C5
:0E46E80009090909090909456E746572206106
:0E46F6006E206F7074696F6E20666F72207494
:0B470400686520436C6F636B0A0D00BA
:0E470F0009090909090909526573657474697D
:0E471D006E6720436C6F636B2E2E2E0A0D000C
:0E472B000909090909090953746F7070696E54
:0D4739006720436C6F636B2E2E2E0A0D005F
:0E474600090909090909095265737461727441
:0E475400696E6720636C6F636B2E2E2E0A0D4C
:014762000056
:0E47630009090909090909456E746572696E34
:0E4771006720414C41524D204D4F44450A0DEA
:01477F000039
:054780000A0D0A0D0006
:0E47850009090909090909456E746572207455
:0E479300686520416C61726D204E756D626527
:0E47A1007220796F75207769736820746F201D
:0A47AF006F7065726174650A0D00F9
:0E47B900090909090909456E7465722061201D
:0E47C70056616C6964206F7074696F6E0A0D24
:0147D50000E3
:0E47D600456E746572696E6720696E746F209F
:0C47E4006D61696E204D656E750A0D0058
:0E47F00009090909090909456E746572696EA7
:0E47FE006720776174636820446F67204D6FF9
:05480C0064650A0D00C7
:0E4811000909090909090957617463682074CF
:09481F006865204C43440A0D00B9
:0E48280009090909090909494E56414C49443C
:0E483600206F7074696F6E20456E7465726538
:04484400640D0A00F5
:0E4848000909090909090952452D454E544533
:0E4856005220796F7572206F7074696F6E0D4D
:024864000A0048
:0521130010980280FBA2
:05211800AA998A822251
:06211D00E58290049FF032
:0521230010990280FB91
:0721280090049FE0F59922ED
:0E212F00AAF0AB83E5829004A0F0A3EBF0A32E
:0E213D00EAF09004A3E4F0A3F09004A0E0FA0E
:0A214B00A3E0FBA3E0FC7D007E0092
:0E215500ED2AFFEE3BF88C018F82888389F023
:0D216300123CC0FF6063C002C003C00490C6
:0E21700004A3E0F8A3E0F99004CC740AF0E4B4
:0E217E00A3F088828983C002C003C004C0059C
:0E218C00C006C007123186A882A983D007D0F2
:0E219A0006D005D004D003D002EF3395E0FA52
:0E21A800EF28F8EA39F9E824D0F8E934FFF915
:0D21B6009004A3E8F0A3E9F00DBD00010EB8
:0921C300D004D003D00202215522
:0C21CC009004A3E0FAA3E08A82F58322CD
:0E21D800AAF0AB83E5829004A5F0A3EBF0A380
:0E21E600EAF09004A8E4F0A3F09004A5E0FA5B
:0A21F400A3E0FBA3E0FC7D007E00E9
:0E21FE00ED2AFFEE3BF88C018F82888389F07A
:0D220C00123CC0FF6039C002C003C0049046
:0E22190004A8E0F8A3E0F9C825E0C833F97A7C
:0E22270000EF28F8EA39F9E824D0F8E934FF8E
:0E223500F99004A8E8F0A3E9F00DBD00010E39
:08224300D004D003D00280B3E7
:0C224B009004A8E0FAA3E08A82F5832248
:0E225700AAF0AB83E5829004AAF0A3EBF0A3FB
:0E226500EAF09004ADE4F0A3F09004AAE0FAD1
:0D227300A3E0FBA3E0FC8A058B068C078A24
:04228000278B288CF4
:0522840029780079003B
:0C228900C005C006C007E82527FDE935A8
:0A22950028FEAF298D828E838FF0A2
:06229F00123CC0F52AE527
:0722A5002A7004740180019E
:0122AC00E44D
:0B22AD00D007D006D005600302241FFC
:0C22B800C3E52A648094B0405974B985D5
:0C22C4002AF063F08095F0404DC005C08A
:0C22D00006C0079004ADE0FDA3E0FE8D09
:0822DC002BC454F0C52BC4C54E
:0422E4002B652BC576
:0622E8002B54F0C52B652C
:0422EE002BF52CAFF1
:0922F2002AE52A3395E0FDEF25F1
:0A22FB002BFFED352CFDEF24D0FF82
:0E230500ED34FFFD9004ADEFF0A3EDF0D00736
:07231300D006D005022417DB
:0E231A00C005C006C007E82AFDE93BFE8C079F
:0C2328008D828E838FF0123CC0F52BC319
:0C233400E52B648094E1D007D006D005B2
:0C234000405574E6852BF063F08095F0AA
:0E234C004049C005C006C0079004ADE0FDA3E7
:0A235A00E0FE8D2DC454F0C52DC423
:05236400C52D652DC52B
:062369002D54F0C52D65A6
:04236F002DF52EAF6B
:092373002BE52B3395E0FDEF256D
:07237C002DFFED352EFD9051
:0E23830004AD74A92FF074FF3DA3F0D007D075
:0623910006D0050224172E
:0E239700C002C003C004E82DFAE93EFB8F042B
:0C23A5008A828B838CF0123CC0F52DC3A3
:0C23B100E52D648094C1D004D003D0025C
:0C23BD00405474C6852DF063F08095F04C
:0E23C9004048C005C006C0079004ADE0FDA36B
:0A23D700E0FE8D2BC454F0C52BC4AA
:0523E100C52B652BC5B2
:0623E6002B54F0C52B652D
:0423EC002BF52CAFF2
:0923F0002DE52D3395E0FDEF25EC
:0723F9002BFFED352CFD90D8
:0E24000004AD74C92FF074FF3DA3F0D007D0D7
:05240E0006D00580046A
:0424130090FFFF2215
:0524170008B8000109F6
:03241C0002228910
:0C241F009004ADE0FAA3E08A82F583226D
:0E242B00AA83E5829004B2F0A3EAF09004B414
:08243900E4F0A3F07A007B003F
:0E2441009004B2E0FCA3E0FDC3E49C74808D27
:0B244F00F063F08095F0400302251FB1
:0E245A009004CE7410F0E4A3F08C828D83C049
:0E24680002C003C004C0051231A6E5828583C0
:0E247600F0D005D004D003D0029004B6F0A33D
:0E248400E5F0F09004D77410F0E4A3F08C8221
:0E2492008D83C002C0031232C2E5828583F042
:0D24A000D003D0029004B2F0A3E5F0F0905C
:0E24AD0004B6E0FCA3E0FD20E724C374099C04
:0E24BB0074808DF063F08095F040158A068BDA
:0E24C90007780074302CFC8E828F8388F0120E
:0424D70030658034B8
:0E24DB009004B6E0FCA3E0FDC3EC940AED64AF
:0E24E9008094804021740F9C74808DF063F00D
:0E24F7008095F040138A068B07780074372C0E
:0A250500FC8E828F8388F01230658F
:05250F000ABA00010BF7
:0B2514009004B4EAF0A3EBF0022441B5
:0E251F009004B4EAF0A3EBF08A048B057E0072
:05252D001CBCFF011DB4
:0E253200BA020EBB000B9004B87401F0E4A3D3
:03254000F0802EFA
:052543001ABAFF011BA4
:0E2548009004D77402F0E4A3F08A828B83C063
:0E25560004C005C0061232C2E5828583F0D0B3
:0D25640006D005D0049004B8F0A3E5F0F017
:0E2571009004B8E0FAA3E0FB7F007800E4F9E4
:04257F00F513F51447
:0A258300C3E5139AE51464808BF0A1
:0E258D0063F08095F05059C002C0038C828D1F
:0A259B00838EF0123CC0F515A31268
:0B25A5003CC0F5168F82888389F0127D
:0E25B0003CC0FA3395E0FB8C828D838EF0EAFE
:0925BE00123065A3EB123065AA8E
:0C25C700158F82888389F0EA123065A32A
:0D25D300AF82A883EC24FEFCED34FFFD0573
:0625E00013E4B51302052F
:0125E60014E0
:0625E700D003D002809633
:0E25ED009004B4E0FAA3E0FB8A048B057E00A4
:0E25FB008C828D838EF0E41230658A828B8391
:0126090022AE
:0E260A00AAF0AB83E5829004BAF0A3EBF0A334
:0E261800EAF09004BDE4F0A3F09004BAE0F5FF
:0826260017A3E0F518A3E0F58D
:05262E00197D007E0093
:0E263300C005C006122113AF82D006D005BF2D
:0E2641000D259004BDE0FAA3E0FB9004BAE082
:0E264F00FCA3E0FDA3E0FEEA2CFCEB3DFD8CBD
:0B265D00828D838EF0E4123065802334
:09266800ED2517F8EE3518F9AA6A
:0C26710019888289838AF0EF1230650D11
:04267D00BD00010E8D
:0A2681009004BDEDF0A3EEF080A878
:05268B008A828B83220E
:0E269000AAF0AB83E5829004BFF0A3EBF0A3A9
:0E269E00EAF09004C2E4F0A3F09004BFE0F56F
:0826AC001AA3E0F51BA3E0F501
:0526B4001C7D007E000A
:0E26B900C005C006122113AF82D006D005BFA7
:0E26C7000D259004C2E0FAA3E0FB9004BFE0F2
:0E26D500FCA3E0FDA3E0FEEA2CFCEB3DFD8C37
:0B26E300828D838EF0E4123065803F92
:0526EE00BF3102800372
:0326F300BF3023D2
:0926F600ED251AF8EE351BF9AAD6
:0C26FF001C888289838AF0EF1230650D80
:04270B00BD00010EFE
:0A270F009004C2EDF0A3EEF080A0EC
:0E27190090486675F080C005C006122732D0C9
:0627270006D0050226B9F0
:05272D008A828B83226B
:0E273200AAF0AB83E5829004C4F0A3EBF0A301
:0E274000EAF09004C4E0FAA3E0FBA3E0FC7D05
:03274E00007E000A
:0E2751008A828B838CF0123CC0FF60300ABA83
:03275F0000010B6B
:0E2762009004C4EAF0A3EBF0A3ECF08F82C069
:0E27700002C003C004C005C00612211DD00621
:0E277E00D005D004D003D0020DBD00C70E80E0
:01278C00C488
:0E278D009004C4EAF0A3EBF0A3ECF00DBD0045
:02279B00010E2D
:05279D008D828E8322F5
:0E48660009090909090909506C65617365208B
:0E487400456E74657220656974686572202750
:0C4882003127206F72202730270A0D001C
:0E27A200E5829004C7F09004C7E0FABA010B7C
:0B27B00090488E75F080122732801ACE
:0E27BB00BA020B9048C375F080122732800CD2
:0C27C900BA030990490275F08012273213
:0E27D50090000075F00012260A90000075F0CA
:0E27E30000122257AA82AB838A048B05C374AE
:0E27F100FF9C74079D404890493F75F080C0E2
:0E27FF0002C003122732D003D002C002C00372
:0A280D00C002C0037467C0E0744904
:0E281700C0E07480C0E0123421E58124FBF59E
:0E28250081D003D00290496C75F080C002C0D3
:0D28330003122732D003D0028A828B832249
:0E28400090498675F080122732E4C0E0C0E0B7
:0A284E00C0E074ADC0E07449C0E0C2
:0E2858007480C0E0123421E58124FAF58190ED
:0928660049B275F080122732908E
:09286F0049CE75F08012273202F7
:0228780027D562
:05287A00D310AF01C303
:0E287F00C0D0AA83E5829004C9F0A3EAF075E8
:0C288D00820212151D9049EE75F08012B9
:0928990027329049F375F080121A
:0928A2002732904A2F75F08012D4
:0928AB002732904A3275F08012C8
:0928B4002732904A2F75F08012C2
:0928BD002732904A6D75F080127B
:0E28C600273290000075F00012260A900000E4
:0E28D40075F00012212FAA82AB83C002C00350
:0A28E200C002C003748AC0E0744A0B
:0E28EC00C0E012307EE58124FCF581D003D0DF
:0E28FA0002904A2F75F080C002C003122732F0
:0D290800D003D0028A828B83C002C003126C
:0E291500181DE5828583F0D003D00245F070D6
:0429230003022AC7BA
:0E29270090048EE4F0A3F08A828B83C002C07D
:0E29350003121798D003D0029004C9E0FCA34F
:0E294300E0FD9004AFE4F0A3F0A3F08C828DD1
:0E29510083C002C00312242BAC82AD83D003DE
:0E295F00D002C002C003C004C005E4C0E0C046
:0A296D00E0C0E074B1C0E0744AC09D
:0E297700E07480C0E0123421E58124FAF5817D
:0E298500D005D004D003D002BC0334BD003115
:0E299300900485EAF0A3EBF0900487E4F0A333
:0E29A100F090000075F000C002C0031215CDCA
:0E29AF00D003D00275823AC002C00312155B3D
:0729BD00D003D002022A58EA
:0E29C400BC0241BD003E758230C002C003124D
:0E29D200155BD003D002900485EAF0A3EBF071
:0E29E000900487E4F0A3F090000075F000C0B2
:0E29EE0002C0031215CDD003D00275823AC08C
:0C29FC0002C00312155BD003D002805013
:0E2A0800BC014DBD004A758230C002C00312F1
:0E2A1600155BD003D002758230C002C00312DF
:0E2A2400155BD003D002900485EAF0A3EBF01E
:0E2A3200900487E4F0A3F090000075F000C05F
:0E2A400002C0031215CDD003D00275823AC039
:0A2A4E0002C00312155BD003D00292
:0E2A58009004C8E0FC7D009004AFE4F0A3F011
:0E2A6600A3F08C828D83C002C00312242BAC1F
:0E2A740082AD83D003D002BC021DBD001A90BB
:0E2A82000485EAF0A3EBF0900487E4F0A3F0E3
:0B2A900090000075F0001215CD802CA6
:0E2A9B00BC0129BD0026758230C002C00312A6
:0E2AA900155BD003D002900485EAF0A3EBF099
:0E2AB700900487E4F0A3F090000075F0001288
:022AC50015CD2D
:052AC700D0D092AF2207
:0A2ACC009049EE75F0801227329059
:092AD6004ABF75F080122732900E
:092ADF004B1A75F08012273290A9
:092AE8004A2F75F080122732908C
:092AF1004B7275F080122732903F
:092AFA004B9375F0801227329015
:092B03004BB375F08012273290EB
:092B0C004BDD75F08012273290B8
:092B15004C0175F080122732908A
:092B1E004C3175F0801227329051
:092B27004C4875F0801227329031
:092B30004C5F75F0801227329011
:092B39004C8575F08012273290E2
:092B42004CAB75F08012273290B3
:092B4B004CC475F0801227329091
:092B54004CDD75F080122732906F
:092B5D004CF775F080122732904C
:092B66004D0F75F080122732902A
:092B6F004D2F75F0801227329001
:092B78004A2F75F08012273290FB
:092B81004D5175F08012273290CD
:082B8A004DAA75F0800227320C
:0E488E0009090909090909456E74657220744B
:0E489C006865206865782076616C7565206F10
:0E48AA006620616E20454550524F4D206164DE
:0B48B8006472657373203A200A0D0043
:0E48C30009090909090909456E746572207416
:0E48D10068652053544152542076616C756521
:0E48DF00206F6620454550524F4D20616464A5
:0E48ED0072657373286865782056616C756576
:0748FB0029203A200A0D00FC
:0E49020009090909090909456E7465722074D6
:0E491000686520454E442076616C7565206F09
:0E491E006620454550524F4D2061646472651D
:0E492C007373286865782056616C75652920C4
:05493A003A200A0D0007
:0E493F000909090909090954686520616464C1
:0E494D007265737320796F752068617665203E
:0C495B00656E746572656420697320004D
:054967002A25782A005A
:0E496C0020616E6420697320612056414C4921
:0C497A004420616464726573730A0D00D0
:0E49860009090909090909546865206164647A
:0E4994007265737320796F75206861766520F7
:0B49A200656E74657265642069730027
:0549AD002A25732A0019
:0E49B20020616E64206973206120494E5641D9
:0E49C0004C494420616464726573730A0D00F3
:0E49CE000909090909090952452D454E5445AC
:0E49DC00522076616C696420616464726573B8
:0449EA00730A0D003F
:0549EE000A0D0A0D0096
:0E49F30009090909090909092040404040400E
:0E4A0100404040404040404020434F4E44491A
:0E4A0F0054494F4E5320464F522027726F7766
:0E4A1D00272040404040404040404040404044
:044A2B00400A0D0030
:034A2F000A0D006D
:0E4A3200090909090909090920546865207657
:0E4A4000616C7565206F6620277927207368EA
:0E4A4E006F756C6420626520696E2074686567
:0E4A5C0020736574207B302C312C322C337D7E
:034A6A000A0D0032
:0E4A6D00090909090909090920456E746572D5
:0E4A7B002074686520792028726F77290A0D53
:014A8900002C
:0E4A8A00090909090909090920795F726F7786
:0E4A980020796F75206861766520656E746503
:0B4AA600726564203A2025640A0D00B0
:0E4AB100202D2D2D2020257320202D2D2D00B1
:0E4ABF000909090909090940404040404040EA
:0E4ACD0040404040404040404040404040405B
:0E4ADB0040404040404040404040404040404D
:0E4AE9004040404048454C50204D454E554001
:0E4AF700404040404040404040404040404031
:0E4B0500404040404040404040404040404022
:074B1300404040400A0D0084
:0E4B1A00090909090909093D3D3D3D3D3D3DA3
:0E4B28003D3D3D3D3D3D3D3D3D3D3D3D3D3D29
:0E4B36003D3D3D3D3D3D3D3D3D3D3D3D3D3D1B
:0E4B44003D3D3D3D3D3D3D3D3D3D3D3D3D3D0D
:0E4B52003D3D3D3D3D3D3D3D3D3D3D3D3D3DFF
:0E4B60003D3D3D3D3D3D3D3D3D3D3D3D3D3DF1
:044B6E003D0A0D00EF
:0E4B720009090909090909312E20546F20573D
:0E4B80005249544520696E746F2045455052CD
:054B8E004F4D0A0D006F
:0E4B930009090909090909322E20546F205220
:0E4BA1004541442066726F6D20454550524FCD
:044BAF004D0A0D009E
:0E4BB30009090909090909332E20546F2077DA
:0E4BC1007269746520454550524F4D20446185
:0E4BCF007461206F6E746F204C43440A0D0019
:0E4BDD0009090909090909342E20546F2043E3
:0E4BEB004C45415220746865204C43442073B1
:084BF900637265656E0A0D0090
:0E4C010009090909090909352E20546F20649C
:0E4C0F006973706C617920454550524F4D20FD
:0E4C1D00696E205061756C6D6F6E20666F724F
:064C2B006D61740A0D002A
:0E4C310009090909090909362E204347524195
:094C3F004D2044554D500A0D00B2
:0E4C480009090909090909372E20444452417F
:094C56004D2044554D500A0D009B
:0E4C5F0009090909090909382E204372656107
:0E4C6D007465206120437573746F6D20436879
:0A4C7B00617261637465720A0D0036
:0E4C850009090909090909392E2044656D6FD6
:0E4C93006E737472617465204C434420467544
:0A4CA1006E6374696F6E730A0D00F4
:0E4CAB000909090909090931302E4545505201
:0B4CB9004F4D2052455345540A0D009A
:0E4CC4000909090909090931312E492F4F202C
:0B4CD200457870616E6465720A0D0089
:0E4CDD000909090909090931322E526573656A
:0C4CEB007420436F756E7465720A0D0032
:0E4CF7000909090909090931332E456E746552
:0A4D05007220436C6F636B0A0D000F
:0E4D0F000909090909090931342E456E746538
:0E4D1D0072205761746368446F67204D6F64A5
:044D2B00650A0D0008
:0E4D2F000909090909090931352E4469737013
:0E4D3D006C6179204355204D6170206F6E200F
:064D4B004C43440A0D0078
:0E4D5100090909090909092D2D2D2D2D2D2DDA
:0E4D5F002D2D2D2D2D2D2D2D2D2D2D2D2D2DD0
:0E4D6D002D2D2D2D2D2D2D2D2D2D2D2D2D2DC2
:0E4D7B002D2D2D2D2D2D2D2D2D2D2D2D2D2DB4
:0E4D89002D2D2D2D2D2D2D2D2D2D2D2D2D2DA6
:0E4D97002D2D2D2D2D2D2D2D2D2D2D2D2D2D98
:054DA5002D2D0A0D0098
:0E4DAA0009090909090909456E746572206F2F
:0E4DB8006E65206F6620746865206F707469E8
:0E4DC6006F6E732061626F766520616E6420EF
:0E4DD400707265737320454E5445520A0D00EF
:0A2B9200904DE275F080122732909A
:092B9C004E4D75F08012273290B5
:092BA5004E5075F08012273290A9
:092BAE004E4D75F08012273290A3
:092BB7004E4D75F080122732909A
:092BC0004EB475F080122732902A
:092BC9004EFD75F08012273290D8
:092BD2004E4D75F080122732907F
:092BDB004F3175F0801227329091
:092BE4004E4D75F080122732906D
:092BED004F7675F080122732903A
:082BF6004E4D75F080022732FC
:0A2BFE00904FD075F080122732903E
:082C0800501A75F0800227321A
:0E2C100090000075F00012260A90000075F08A
:0E2C1E000012212FAA82E583FB20E70FC3746A
:0D2C2C001F9A74808BF063F08095F05020AB
:0E2C3900C3EA9428EB648094805003022CFEC2
:0E2C4700C374479A74808BF063F08095F05050
:042C550003022CFE4C
:0E2C5900904E4D75F080C002C003122732D09D
:0C2C670003D002C002C003C002C003740E
:082C73005CC0E07450C0E012E7
:0D2C7B00307EE58124FCF581D003D002906D
:0E2C88004E4D75F080C002C003122732D003FB
:0D2C9600D0029050A175F080C002C0031262
:0E2CA3002732D003D002C002C003C002C0031B
:092CB10074E3C0E07450C0E012AD
:0E2CBA00307EE58124FCF581D003D0028A82B1
:0C2CC8008B8312176D904E4D75F080123A
:092CD40027329050ED75F08012DA
:092CDD002732904E4D75F0801273
:092CE6002732904F7675F0801240
:092CEF002732904E4D75F0801261
:062CF800273290000122CA
:0A2CFE00C002C0037429C0E0745145
:0E2D0800C0E012307EE58124FCF581900000D1
:012D1600229A
:092D170090517275F08002273220
:0A2D20009051B875F0801227329030
:092D2A0051BD75F08012273290B2
:092D33004E4D75F080122732901C
:092D3C0051FF75F080122732905E
:092D4500524075F0801227329013
:092D4E004E4D75F0801227329001
:0E2D5700528075F08012273290000075F00057
:0E2D650012260A90000075F00012212FAA829B
:0C2D7300AB83C002C003C002C003749D0B
:0C2D7F00C0E07452C0E012307EE58124F8
:0E2D8B00FCF581D003D002904E4D75F080C053
:0E2D990002C003122732D003D0029052C4753C
:0E2DA700F080C002C003122732D003D0029089
:0E2DB500000075F000C002C00312260AD00311
:0D2DC300D00290000075F000C002C00312A5
:0E2DD000212FAC82AD83D003D002C002C0031D
:0C2DDE00C004C005C004C00574E4C0E0DF
:0C2DEA007452C0E012307EE58124FCF53C
:0E2DF60081D005D004D003D002904E4D75F070
:0E2E040080C002C003C004C005122732D005F2
:0E2E1200D004D003D00290530E75F080C002A1
:0E2E2000C003C004C005122732D005D004D074
:0E2E2E0003D002904E4D75F080C002C003C06C
:0E2E3C0004C005122732D005D004D003D00206
:0E2E4A0090534975F080C002C003C004C0055B
:0E2E5800122732D005D004D003D0029053715F
:0E2E660075F080C002C003C004C00512273200
:0E2E7400D005D004D003D002904E4D75F080F2
:0E2E8200C002C003C004C005122732D005D024
:0E2E900004D003D00290539875F080C002C0A9
:0E2E9E0003C004C005122732D005D004D003B3
:0E2EAC00D002C002C003C004C005122113AE44
:0E2EBA0082D005D004D003D002BE31028009C0
:062EC800BE3203022FC21E
:032ECE0002304A85
:0D2ED1008A828B83C002C003C004C00512BA
:0E2EDE00181DE5828583F0D005D004D003D006
:062EEC000245F070012216
:0D2EF2008C828D83C002C003C004C0051295
:0E2EFF001859E5828583F0D005D004D003D0A9
:062F0D000245F0700122F4
:0E2F13009053BE75F080C002C003C004C0051C
:0E2F2100122732D005D004D003D00290048EC7
:0E2F2F00ECF0A3EDF08A828B83C002C003C0D9
:0E2F3D0004C005121798D005D004D003D002AE
:0E2F4B0090000075F000C002C003C004C00575
:0E2F590012260AD005D004D003D0029053F007
:0E2F670075F080C002C003C004C005122732FE
:0E2F7500D005D004D003D002C002C003C004B7
:0C2F8300C005E4C0E0C0E0C0E0741CC069
:0C2F8F00E07454C0E07480C0E0123421F3
:0E2F9B00E58124FAF581D005D004D003D002E0
:0E2FA900900485EAF0A3EBF0900487ECF0A30F
:0B2FB700EDF090000075F0000215CD59
:0D2FC2008A828B83C002C003C004C00512C8
:0E2FCF00181DE5828583F0D005D004D003D014
:0E2FDD000245F060688C828D83C002C003C084
:0E2FEB0004C005121859E5828583F0D005D088
:0E2FF90004D003D00245F0604890542A75F0D1
:0E30070080C002C003C004C005122732D005ED
:0E301500D004D003D00290048EECF0A3EDF0B6
:0D3023008A828B83121798122113AA8290C3
:0E303000545F75F080C002122732D0028A82EF
:0C303E00C00212211DD0028A8202155B24
:0A304A009051B875F0801227329003
:09305400548E75F08012273290B1
:08305D0054B375F08002273224
:0E4DE200090909090909092A2A2A2A2A2A2A5E
:0E4DF0002A2A2A2A2A2A2A2A2A2A2A2A2A2A69
:0E4DFE002A2A2A2A2A2A2A2A2A2A2A2A2A2A5B
:0E4E0C002A2A2A454D42454444454420535924
:0E4E1A0054454D2044455349474E2A2A2A2A22
:0E4E28002A2A2A2A2A2A2A2A2A2A2A2A2A2A30
:0E4E36002A2A2A2A2A2A2A2A2A2A2A2A2A2A22
:094E44002A2A2A2A2A2A0A0D0052
:034E4D000A0D004B
:0E4E5000090909090909092020202020202035
:0E4E5E00202020202020202020202020202086
:0E4E6C00202020202020202020202020202078
:0E4E7A00202020204C414220342020202020E7
:0E4E880020202020202020202020202020205C
:0E4E960020202020202020202020202020204E
:0E4EA400202020202020202020202020200A56
:024EB2000D00F1
:0E4EB40009090909090909092048454C4C4F14
:0E4EC2002C20546869732070726F6772616DE6
:0E4ED00020697320676F696E6720746F20641D
:0E4EDE006973706C617920766172696F75730B
:0E4EEC00204C43442066756E6374696F6E73CC
:034EFA000A0D009E
:0E4EFD00090909090909090920506572666F43
:0E4F0B00726D696E6720746865207468652099
:0E4F19006C6364696E697428292066756E6386
:0A4F270074696F6E2E2E2E0A0D0025
:0E4F3100090909090909090920596F7520634A
:0E4F3F00616E206F627365727665207468651E
:0E4F4D0020637572736F7220626C696E6B69FF
:0E4F5B006E672061742074686520706F736942
:0D4F690074696F6E2028302C30290A0D006D
:0E4F760009090909090909092D2D2D2D2D2DD7
:0E4F84002D2D2D2D2D2D2D2D2D2D2D2D2D2DA9
:0E4F92002D2D2D2D2D2D2D2D2D2D2D2D2D2D9B
:0E4FA0002D2D2D2D2D2D2D2D2D2D2D2D2D2D8D
:0E4FAE002D2D2D2D2D2D2D2D2D2D2D2D2D2D7F
:0E4FBC002D2D2D2D2D2D2D2D2D2D2D2D2D2D71
:064FCA002D2D2D0A0D0043
:0E4FD0000909090909090909205468652073B7
:0E4FDE0065636F6E642066756E6374696F6E36
:0E4FEC00204920616D20676F696E6720746F29
:0E4FFA002064656D6F6E73747261746520695A
:0E50080073206C6364676F746F616464722858
:04501600290A0D0056
:0E501A00090909090909090920456E74657222
:0E502800207468652061646472657373206192
:0E5036007420776869636820752077616E7456
:0E50440020746F20706F696E7420796F757222
:0A50520020637572736F720A0D007F
:0E505C0009090909090909092054686520613C
:0E506A0064647265737320796F7520686176D7
:0E5078006520656E746572656420697320257D
:0E5086006420616E6420697320612076616C85
:0D509400696420616464726573730A0D0025
:0E50A1000909090909090909204E6F772075D0
:0E50AF002063616E207468652073656520744F
:0E50BD0068652074686520636F757273657294
:0E50CB0020626C696E6B696E672061742061F3
:0A50D900646472657373203A2000CE
:0A50E300202A202564202A0A0D006F
:0E50ED00090909090909090920596970656551
:0E50FB00202121206C6364676F746F61646410
:0E510900722829207375636365737366756C75
:0E5117006C792064656D6F6E737472617465DF
:04512500640A0D000B
:0E51290009090909090909092054686520616E
:0E51370064647265737320796F752068617609
:0E5145006520656E74657265642069732025AF
:0E5153006420616E64206973206E6F742061A9
:0E5161002076616C696420616464726573730A
:03516F000A0D0026
:0E517200090909090909090920546865206E18
:0E5180006578742066756E6374696F6E2049E1
:0E518E0020616D20676F696E6720746F20646A
:0E519C00656D6F6E73747261746520697320A7
:0E51AA006C6364676F746F787928290A0D00B2
:0551B8000A0D0A0D00C4
:0E51BD0009090909090909092040404040403C
:0E51CB00404040404040404020434F4E444949
:0E51D90054494F4E5320464F5220277827202E
:0E51E700616E64202779272040404040404000
:0A51F500404040404040400A0D00D9
:0E51FF00090909090909090920312E205468FF
:0E520D00652076616C7565206F662027782716
:0E521B002073686F756C6420626520696E20D8
:0E5229006265747765656E2027302720616E00
:095237006420273135270A0D001F
:0E524000090909090909090920322E205468BC
:0E524E00652076616C7565206F6620277927D4
:0E525C002073686F756C6420626520696E2097
:0E526A006265747765656E2027302720616EBF
:0852780064202733270A0D0012
:0E528000090909090909090920456E746572BA
:0E528E002074686520792028726F77290A0D38
:01529C000011
:0E529D00090909090909090920795F726F776B
:0E52AB0020796F75206861766520656E7465E8
:0B52B900726564203A2025640A0D0095
:0E52C400090909090909090920456E74657276
:0E52D2002074686520782028636F6C756D6EFF
:0452E000290A0D008A
:0E52E400090909090909090920785F636F6C3F
:0E52F200756D6E20796F752068617665206598
:0E5300006E7465726564203A2025640A0D0003
:0E530E000909090909090909204E6F77204491
:0E531C00656D6F6E7374726174696E67206CDC
:0E532A006364707574737472282920616E6458
:0E533800206C6364707574636828292E2E2E15
:035346000A0D004D
:0E5349000909090909090909090920312E205D
:0E53570044656D6F6E737472617465206C63D3
:0C5365006470757473747228290A0D00BE
:0E5371000909090909090909090920322E2034
:0E537F0044656D6F6E737472617465206C63AB
:0B538D0064707574636828290A0D0025
:0E5398000909090909090909090920506C656C
:0E53A60061736520656E74657220796F757293
:0A53B400206F7074696F6E0A0D001F
:0E53BE000909090909090909090920456E7440
:0E53CC0065722074686520737472696E6720C4
:0E53DA00796F752077616E7420746F2064699E
:0853E80073706C61790A0D007D
:0E53F000090909090909090909092054686514
:0E53FE0020537472696E6720796F75206861A4
:0E540C00766520656E74657265642069732094
:02541A003A0056
:0E541C00202D2D2D2020257320202D2D2D003C
:0E542A000909090909090909090920456E74D3
:0E543800657220746865206368617261637438
:0E544600657220796F752077616E7420746F27
:0B54540020646973706C61790A0D0020
:0E545F000909090909090909090920546865A4
:0E546D002063686172616374657220796F75E7
:0E547B00206861766520656E74657265642038
:055489006973203A00E8
:0E548E000909090909090909090920496E7669
:0E549C00616C6964206F7074696F6E20656EBC
:0954AA007465726564200A0D00AE
:0E54B30009090909090909090909202A2A2AF3
:0E54C100524520454E54455220594F55522019
:0E54CF004F5054494F4E202A2A2A200A0D0021
:06006500E478FFF6D8FD6F
:08004300790EE94400601B7A0C
:05004B00019054E8786B
:030050000F75A089
:0A00530005E493F2A308B8000205CB
:08005D00A0D9F4DAF275A0FF4E
:0E30650020F71030F6118883A88220F507F6B8
:05307300A88375830035
:013078002235
:03307900F280F7EB
:02307C00F02240
:05307E00C01D85811D4D
:0B308300E51D24FDF8868318868218E6
:0E308E00E493A324DB600C2425600512316B53
:02309C0080F0C2
:03309E0002318379
:0930A100D2D5E493A3C083C082E0
:0330AA00B47314E8
:0930AD0086F0188683188682184B
:0B30B600123CC06053A312316B80F588
:0A30C100B46307E61812316B804378
:0E30CB00B46417E630E74618E6F42401F60870
:0C30D900E6F43400F6742D12316B8033E5
:0A30E500B4782D868318868218E463
:0B30EF0012315CE58312315BE58312B7
:0A30FA00315CE58212315BE58212C1
:0A310400315C30D505743012316BD8
:07310E00D082D08302308E55
:03311500B475F698
:06311800E6FA18E6F918C2
:0D311E007C107D27123146FF7CE87D0312F6
:0E312B003146C4F5837C647D00123146428338
:0D313900E975F00A84C445F0F582EF80A925
:023146007B000C
:0E3148000BC3E99CF9EA9DFA50F61BE92CF93D
:05315600EA3DFAEB2246
:01315B00C4AF
:07315C00540F700320D51F82
:08316300C2D52490D43440D4FD
:0E316B00C083C082C0F0F582E8C0E012211DD2
:09317900D0E0F8D0F0D082D08340
:01318200222A
:03318300D01D223A
:0E318600AA83AB828BF09004CCE0A4F8A9F0F1
:0E3194008AF0E0A429F98BF0A3E0A429F583CA
:0431A20088822222DB
:0E31A600AA83E5829004D0F0A3EAF09004D052
:0E31B400E0FAA3E0FB30E709C3E49AFCE49BD9
:0331C200FD800489
:0431C5008A048B05E8
:0E31C9008C028D039004CEE0FCA3E0FD30E705
:0A31D70009C3E49CFEE49DFF8004A0
:0431E1008C068D07C4
:0D31E5009004D2EEF0A3EFF08A828B8312EB
:0E31F2003214AA82AB839004D0E0FCA3E0FD6F
:0E32000030E70CC3E49AFCE49BFD8C828D83C6
:01320E00229D
:05320F008A828B83227E
:0E321400AA83E5829004D4F0A3EAF09004D6D9
:0C322200E4F09004D4E0FAA3E0FB7C0090
:0E322E009004D2E0FDA3E0FE235401FF7037B0
:0E323C00EECD25E0CD33FE9004D2EDF0A3EEF2
:0E324A00F09004D2E0FDA3E0FEC3EA9DEB9EEF
:0E3258005011EEC313CD13CDFE9004D2EDF055
:05326600A3EEF080085A
:08326B000C9004D6ECF080BBCE
:053273009004D6E0FA12
:0E3278009004D4E0FBA3E0FC9004D2E0FDA3A0
:0E328600E0FEC3EB9DEC9E400B9004D4EBC326
:063294009DF0EC9EA3F08A
:0E329A009004D2E0FBA3E0FCC313CB13CBFCEB
:0E32A8009004D2EBF0A3ECF08A031AEB70C294
:0C32B6009004D4E0FAA3E08A82F58322A1
:0E32C200AA83E5829004D9F0A3EAF09004D923
:0E32D000E0FAA3E0FB30E709C3E49AFCE49BBC
:0332DE00FD80046C
:0432E1008A048B05CB
:0E32E5008C028D039004D7E0FCA3E0FD33E4DF
:0D32F30033FE6009C3E49CFFE49DF88004F5
:043300008C078D00A9
:0E3304009004DBEFF0A3E8F08A828B83C00612
:0E33120012333AAA82AB83D0069004D9E0FCB5
:0E332000A3E0FD33E4336E600CC3E49AFCE4DA
:07332E009BFD8C828D8322C0
:053335008A828B832257
:08006B007800E84400600A7906
:030073000075A075
:0600760000E4F309D8FCD0
:08007C00780FE84401600C79E3
:0B00840002900400E4F0A3D8FCD9FABD
:0E333A00AA83E5829004DDF0A3EAF09004DFA0
:0E334800E4F0A3F09004DBE0FAA3E0FB7C10BD
:0C3356009004DDE0FDA3E0FE339200EEE9
:0E336200CD25E0CD33FE9004DDEDF0A3EEF0BE
:0E3370009004DFE0FDA3E0FECD25E0CD33FEAE
:0C337E009004DFEDF0A3EEF030001290A0
:0E338A0004DFE0FDA3E0FE9004DF74014DF0CF
:03339800A3EEF0B1
:0E339B009004DFE0FDA3E0FEC3ED9AEE9B4040
:0D33A9001D9004DFEDC39AF0EE9BA3F090A1
:0E33B60004DDE0FDA3E0FE9004DD74014DF0A7
:0333C400A3EEF085
:0E33C700DC8D9004DDE0FAA3E08A82F583221B
:0833D500C01D85811DAA8212B2
:0533DD00211DD01D229E
:0E33E200AAF0AB83E5829004E2F0A3EBF0A327
:0E33F000EAF09004E2E0FAA3E0FBA3E0FC9018
:0E33FE0004E1E0FD9004F5E4F0A3F0A3F090EC
:0E340C0004F8EAF0A3EBF0A3ECF09004FBED63
:07341A00F09033D502353AB2
:06342100C01D85811DE5C0
:0C3427001D24FBFA9004F5E4F0A3F0A3D0
:0C343300F0E51D24FBF89004F8E6F0081A
:0D343F00A3E6F008A3E6F09004FBEAF0908D
:0A344C0033D512353AAA82AB83D0C3
:023456001D2235
:0C345800E5829004F1F09004F1E0FA909D
:0E34640004E7E0C0E0A3E0C0E0A3E0C0E07435
:0834720086C0E07434C0E09054
:0C347A0004E5E0C0E0A3E0C0E08A82228C
:0E3486001581158115819004EFE0FAA3E0FB9B
:0C3494009004EF74012AF0E43BA3F02246
:0E34A000E5829004F2F09004F2E0FA74302A13
:0C34AE00FA24C6500A74072AFA30010301
:0334BA00430220AA
:0534BD008A8202345870
:0E34C200E5829004F3F09004F3E0FAC4540F96
:0E34D000FBF582C0021234A0D00253020F8A14
:0434DE00820234A092
:0E34E200E5829004F4F09004EAE0FAA3E0FB27
:0E34F000A3E0FCA3E0FD9004EEE0FE9004F4E7
:0434FE00E0FF782053
:0E350200EE2EFEED235401F94206EA2AFAEB02
:0E35100033FBEC33FCED33FDC3EE9F4007EEC2
:06351E00C39FFE43020101
:0E352400D8DC9004EAEAF0A3EBF0A3ECF0A3ED
:08353200EDF09004EEEEF02232
:0E353A00AA83E5829004FCF0A3EAF09004FC62
:0E354800E0FAA3E0FB9004E5EAF0A3EBF090BC
:0E35560004F5E0FAA3E0FBA3E0FC9004E7EA32
:0E356400F0A3EBF0A3ECF09004EFE4F0A3F082
:0E3572009004F8E0FAA3E0FBA3E0FC8A828B51
:0E358000838CF0123CC0FD9004F874012AF018
:0D358E00E43BA3F0A3ECF0ED7003023C6100
:05359B00BD25028003C4
:0335A000023C5991
:0535A300C202C203C2D8
:0435A80004C205C292
:0435AC0006C207C28A
:0435B00008C20990B4
:0935B40004FEE4F09004FFF09025
:0E35BD00050074FFF09004F8E0FAA3E0FBA311
:0235CB00E0FC22
:0E35CD008A828B838CF0123CC0FEA3AA82ABD4
:0D35DB00839004F8EAF0A3EBF0A3ECF0906D
:0D35E8000502EEF0BE25088E821234580256
:0235F50035722D
:0535F7008E07BF30004B
:0E35FC0040498E07EF24C64042900500E0FFD4
:0E360A00BFFF29C002C003C0049004FFE0FA15
:0E36180075F00AA4FAEE24D09004FF2AF09078
:0D36260004FFE0FAD004D003D002709BD264
:033633000380977A
:0E363600EF75F00AA4FFEE24D09005002FF0EF
:033644000235CD7F
:0E364700900502E0FEBE2E08900500E4F002A1
:0236550035CD71
:0E3657008E82C002C003C004C006123CDCE537
:0C3665008224FF9201D006D004D003D0D4
:0B3671000230010790050274DF5EF0DC
:0A367C00900502E0FEBE200280551A
:05368600BE2B02804B89
:05368B00BE2D0280418C
:05369000BE4202804B68
:05369500BE430280505D
:06369A00BE44030238CE1D
:0636A000BE46030238F0F3
:0636A600BE49030238CE0C
:0536AC00BE4C02803459
:0636B100BE4F030238D8F1
:0636B700BE500302383092
:0536BD00BE5302804233
:0636C200BE55030238E0D2
:0636C800BE58030238E8C1
:0336CE000238F4CB
:0536D100D2020235CD1C
:0536D600D2040235CD15
:0536DB00D2050235CD0F
:0536E000D2070235CD08
:0536E500D2080235CD02
:0E36EA009004FBE0FA24FEF89004FBF0860248
:0C36F800088603188A8212345802390038
:0E3704009004FBE0FA24FDF89004FBF086022E
:0E37120008860308860418189004EAEAF0A35B
:0E372000EBF0A3ECF09004EAE0FAA3E0FBA3C8
:0E372E00E0FC8A828B838CF0123C6DAA82AB89
:0E373C0083900500E0FBBBFF05900500EAF05E
:0C374A002002389004FFE0FBC3EA9B5013
:0D3756002E9004FFEBC39AF09004FFE0FBFF
:0D3763008B041B9004FFEBF0BC00028010F3
:0E377000758220C002C003123458D003D0026C
:02377E0080E3E6
:053780009004FFEBF0D6
:05378500900500E0FDCD
:0E378A00C0029004EAE0FCA3E0FFA3E0FA8C8A
:0E379800828F838AF0123CC0D00260538D04F1
:0E37A6001DC374808CF063F08095F05044C019
:0A37B400029004EAE0F522A3E0F51C
:0837BE0023A3E0F524740125AA
:0737C60022FBE43523FAACFD
:0C37CD00249004EAEBF0A3EAF0A3ECF077
:0737D9008522828523838510
:0C37E00024F0123CC0FAF582C002C005C3
:0B37EC00123458D005D002D0028093A8
:0637F7002002030239006C
:0D37FD009004FFE0FBC3EA9B40030239008B
:0C380A009004FFEBC39AF09004FFE0FA7A
:0E3816008A031A9004FFEAF0BB00030238FB9D
:0C382400758220C002123458D00280E6E9
:0E3830009004FBE0FB24FDF89004FBF08603FF
:0E383E0008860408860718189004EAEBF0A329
:0E384C00ECF0A3EFF09004ECE0FB247F5008BA
:08385A009005027443F0802088
:0D386200EB249F50089005027450F0801375
